# inbound logon
20111107-10:52:22.133: 8=FIX.4.4|9=100|35=A|34=1|49=XXX-MD|52=20111107-10:52:22.128|56=XXX-XUAT|98=0|108=30|141=Y|553=XXXmd|554=XXXmd1|10=146|


20111107-10:52:25.272: 8=FIX.4.4|9=77|35=A|52=20111107-10:52:25.926|49=XXX-XUAT|56=XXX-MD|34=1|141=Y|108=30|98=0|10=176|
# TradingSessionStatus
20111107-10:52:25.273: 8=FIX.4.4|9=72|35=h|52=20111107-10:52:25.927|49=XXX-XUAT|56=XXX-MD|34=2|336=MD|340=2|10=000|


20111107-10:52:54.373: 8=FIX.4.4|9=130|35=V|34=3|49=XXX-MD|52=20111107-10:52:54.373|56=XXX-XUAT|262=EURUSD:0:0001|263=1|264=0|265=0|146=1|55=EUR/USD|267=2|269=0|269=1|10=192|
